:0400000081EF00F09C
:1000080040004000400040004000400040004000E8
:1000180040004000400040004000400040004000D8
:100028000B234000400040004000400040004000DA
:1000380040004000400040004000400040004000B8
:1000480040004000400040004000400040004000A8
:100058004000400040004000400040004000400098
:100068004000400040004000400040004000400088
:100078004000400040004000400040004000400078
:100088004000400040004000400040004000400068
:100098004000400040004000400040004000400058
:1000A8004000400040004000400040004000400048
:1000B8004000400040004000400040004000400038
:1000C8004000400040004000400040004000400028
:1000D8004000400040004000400040004000400018
:1000E8004000400040004000400040004000400008
:0E00F8004000400040004000FF0026EF48F0AE
:102500000041444320636F756E74203D2020256494
:102510002C566F6C74616765203D2020252E326635
:102520000A0D005570706572205468726573686F8B
:102530006C642043726F737365640A0D004C6F778F
:102540006572205468726573686F6C642043726FA3
:10255000737365640A0D005468726573686F6C6408
:102560002063726F737365640A0D00494E46004E16
:0F257000414E00696E66006E616E006C66000081
:10258000000E06015F6F000E5E6F40C670F641C61A
:1025900071F642C672F643C673F673BFD4EF12F0FB
:1025A000D2EF12F0EAEF12F0000E5F6F010E5E6FD5
:1025B00070C6A0F571C6A1F572C6A2F573C6A3F5E3
:1025C000CFEC47F0A0C570F6A1C571F6A2C572F6B2
:1025D000A3C573F6000E0601776F000E766FB7C6BF
:1025E00062F6B8C663F65E515F11D8A4FAEF12F036
:1025F000FCEF12F004EF13F00501BCA502EF13F09D
:1026000004EF13F01FEF13F006015E515F11D8A421
:102610000CEF13F00EEF13F014EF13F0000E4B6FEE
:102620002B0E4A6F18EF13F0000E4B6F2D0E4A6FF2
:102630004AC600F7764B772B6207D8A0630770C6AF
:10264000A0F571C6A1F572C6A2F573C6A3F56AEC32
:102650003FF00501A005A111D8A431EF13F033EF2D
:1026600013F084EF13F0BF0E0601456FFF0E466FA7
:102670004451476F486B45514727465148234851BD
:1026800007E11A0E475DD8B048EF13F04AEF13F098
:102690005BEF13F0000E76250501A06F070E060113
:1026A00077210501A16F6B0EA26F250EA36F59EC68
:1026B00045F06AEF13F0000E76250501A06F070EB6
:1026C000060177210501A16F730EA26F250EA36F7E
:1026D00059EC45F00601FD0E6227FF0E63233EC64E
:1026E000B2F53FC6B3F5000E0501B46F070EB56F26
:1026F00062C6B6F563C6B7F564EC41F0B2C53EF606
:10270000B3C53FF61BEF19F070C6A0F571C6A1F571
:1027100072C6A2F573C6A3F56AEC3FF00501A0519D
:10272000A111D8A496EF13F098EF13F0E9EF13F08E
:10273000BF0E0601456FFF0E466F4451476F486B51
:102740004551472746514823485107E11A0E475D36
:10275000D8B0ADEF13F0AFEF13F0C0EF13F0000EF1
:1027600076250501A06F070E060177210501A16FEF
:102770006F0EA26F250EA36F59EC45F0CFEF13F04B
:10278000000E76250501A06F070E060177210501D1
:10279000A16F770EA26F250EA36F59EC45F00601CD
:1027A000FD0E6227FF0E63233EC6B2F53FC6B3F5AA
:1027B000000E0501B46F070EB56F62C6B6F563C6AD
:1027C000B7F564EC41F0B2C53EF6B3C53FF61BEF7A
:1027D00019F0000E0601786F000E796F800E7A6F87
:1027E0003F0E7B6F000E756F000E746F70C6A0F504
:1027F00071C6A1F572C6A2F573C6A3F5000E050158
:10280000A46F000EA56F000EA66F000EA76FA9ECB7
:1028100043F00501D8B00FEF14F011EF14F098EF6A
:1028200014F031EF14F078C6AEF579C6AFF57AC67C
:10283000B0F57BC6B1F5000E0501B26F000EB36FA7
:10284000200EB46F410EB56F57EC2AF0AEC578F686
:10285000AFC579F6B0C57AF6B1C57BF60601744B03
:10286000752B70C611F671C612F672C613F673C6D2
:1028700014F6000E0501B26F000EB36F200EB46F98
:10288000410EB56F78C6AEF579C6AFF57AC6B0F52C
:102890007BC6B1F557EC2AF0AEC515F6AFC516F6F6
:1028A000B0C517F6B1C518F6E2EC3DF00601D8B098
:1028B0005CEF14F05EEF14F013EF14F07EEF14F001
:1028C00078C611F679C612F67AC613F67BC614F6E8
:1028D000000E156F000E166F200E176F410E186F49
:1028E000CCEC2EF011C678F612C679F613C67AF63D
:1028F00014C67BF606017407D8A0750770C611F6DA
:1029000071C612F672C613F673C614F678C615F6BB
:1029100079C616F67AC617F67BC618F6E2EC3DF0D5
:102920000601D8A096EF14F098EF14F060EF14F0C1
:1029300044C6A6F50501A76B3FEC46F00501A6517C
:102940000601656F65C664F6670E6519D8A4ABEF1E
:1029500014F0ADEF14F0D3EF14F0B951BA11D8A4BC
:10296000B4EF14F0B6EF14F0BAEF14F0000EBA6F33
:10297000010EB96FBABFC7EF14F0BA5106E1B9053D
:10298000D8B0C5EF14F0C7EF14F0CDEF14F0000E7F
:10299000616F060E606FDCEF14F0B9C660F6BAC660
:1029A00061F6DCEF14F0BABFD8EF14F0DAEF14F0F0
:1029B000C7EF14F0CDEF14F0670E6519D8A4E3EF5C
:1029C00014F0E5EF14F014EF15F075AFF3EF14F019
:1029D000FC0E745DFF0E7559D8A0F1EF14F0F3EF03
:1029E00014F012EF15F0FF0E456FFF0E466F60C634
:1029F00047F661C648F6455147274651482374516A
:102A0000475D4851800A496F7551800A4959D8A0DD
:102A10000CEF15F00EEF15F012EF15F0660E646F67
:102A200014EF15F0650E646F60C656F661C657F672
:102A3000670E6519D8A41FEF15F021EF15F031EFDF
:102A400015F0660E6419D8A428EF15F02AEF15F0DA
:102A500033EF15F075BF31EF15F02FEF15F033EFB1
:102A600015F0564B572B660E6419D8A43AEF15F0A3
:102A70003CEF15F05CEF15F075BF43EF15F041EF3B
:102A800015F04FEF15F0000E786F000E796F800E85
:102A90007A6F3F0E7B6F000E756F000E746F670EBE
:102AA0006519D8B456EF15F058EF15F05CEF15F036
:102AB0007451562775515723000E6F6F000E6E6FBD
:102AC00070C666F671C667F672C668F673C669F6B2
:102AD00078C658F679C659F67AC65AF67BC65BF6BA
:102AE000EEEF15F066C611F667C612F668C613F665
:102AF00069C614F678C615F679C616F67AC617F6BC
:102B00007BC618F6CCEC2EF011C62AF612C62BF6B0
:102B100013C62CF614C62DF661EC35F02AC66AF6FB
:102B20002BC66BF62CC66CF62DC66DF66AC6A0F5E4
:102B30006BC6A1F56CC6A2F56DC6A3F55EEC3DF0C3
:102B4000A0C55CF6A1C55DF666C611F667C612F6AD
:102B500068C613F669C614F678C6B2F579C6B3F539
:102B60007AC6B4F57BC6B5F56AC6AEF56BC6AFF5E9
:102B70006CC6B0F56DC6B1F557EC2AF0AEC515F6CA
:102B8000AFC516F6B0C517F6B1C518F663EC46F03A
:102B900011C666F612C667F613C668F614C669F65D
:102BA00078C611F679C612F67AC613F67BC614F605
:102BB000000E0601156F000E166F200E176F410EE6
:102BC000186FCCEC2EF011C678F612C679F613C643
:102BD0007AF614C67BF606016E4B6F2B56516E5D6E
:102BE0006F51800A456F5751800A4559D8A0FBEFB5
:102BF00015F0FDEF15F072EF15F078C6AEF579C659
:102C0000AFF57AC6B0F57BC6B1F5000E0501B26F1F
:102C1000000EB36FA00EB46F400EB56F57EC2AF0E4
:102C2000AEC56AF6AFC56BF6B0C56CF6B1C56DF64C
:102C300066C611F667C612F668C613F669C614F6BC
:102C40006AC615F66BC616F66CC617F66DC618F68C
:102C5000E2EC3DF00601D8B030EF16F032EF16F09E
:102C60003CEF16F0000E6A6F000E6B6F000E6C6F7B
:102C7000000E6D6F66EF16F066C6A0F567C6A1F58B
:102C800068C6A2F569C6A3F56AC6A4F56BC6A5F524
:102C90006CC6A6F56DC6A7F5A9EC43F00501D8A052
:102CA00054EF16F056EF16F066EF16F006015CB121
:102CB0005CEF16F05EEF16F066EF16F0000E6A6F2E
:102CC000000E6B6F000E6C6F000E6D6F70C6A0F57E
:102CD00071C6A1F572C6A2F573C6A3F56AC6A4F5BE
:102CE0006BC6A5F56CC6A6F56DC6A7F596EC25F0E6
:102CF000A0C566F6A1C567F6A2C568F6A3C569F6C4
:102D000066C611F667C612F668C613F669C614F6EB
:102D1000000E0501B26F000EB36F200EB46F410EAE
:102D2000B56F58C6AEF559C6AFF55AC6B0F55BC615
:102D3000B1F557EC2AF0AEC515F6AFC516F6B0C51D
:102D400017F6B1C518F6E2EC3DF00601D8A0ABEFDE
:102D500016F0ADEF16F0D6EF16F0744B752B58C683
:102D6000AEF559C6AFF55AC6B0F55BC6B1F5000E63
:102D70000501B26F000EB36F200EB46F410EB56F38
:102D800057EC2AF0AEC558F6AFC559F6B0C55AF69D
:102D9000B1C55BF6660E06016419D8A4D2EF16F031
:102DA000D4EF16F0D6EF16F0564B572B58C678F6E0
:102DB00059C679F65AC67AF65BC67BF6650E641973
:102DC000D8B4E5EF16F0E7EF16F0EDEF16F074C6A5
:102DD00054F675C655F6F1EF16F0000E556F000E5D
:102DE000546F000E536F000E526F000E516F000EA5
:102DF000506F000E6F6F000E6E6FEFEF17F066C62C
:102E000011F667C612F668C613F669C614F678C6D8
:102E100015F679C616F67AC617F67BC618F6CCEC08
:102E20002EF011C62AF612C62BF613C62CF614C6BF
:102E30002DF661EC35F02AC66AF62BC66BF62CC669
:102E40006CF62DC66DF66AC6A0F56BC6A1F56CC60C
:102E5000A2F56DC6A3F55EEC3DF0A0C55CF6A1C57C
:102E60005DF60501BCB937EF17F039EF17F057EFF2
:102E700017F006015C515D11D8A441EF17F043EF44
:102E800017F057EF17F0670E6519D8A44AEF17F03F
:102E90004CEF17F057EF17F055BF53EF17F051EF06
:102EA00017F057EF17F0504B512BA2EF17F0060118
:102EB00052515311D8A45FEF17F061EF17F08BEF69
:102EC00017F055BF68EF17F066EF17F08BEF17F0AC
:102ED000000E7625D96E070E7721DA6E2E0EDF6E84
:102EE000764B772B6207D8A06307000E536F010E55
:102EF000526F8BEF17F0000E7625D96E070E7721F3
:102F0000DA6E300EDF6E764B772B6207D8A0630740
:102F10005007D8A0510750515111D8A492EF17F083
:102F200094EF17F07BEF17F0000E7625D96E070EA1
:102F30007721DA6E5C51300FDF6E764B772B6207AC
:102F4000D8A0630766C611F667C612F668C613F600
:102F500069C614F678C6B2F579C6B3F57AC6B4F583
:102F60007BC6B5F56AC6AEF56BC6AFF56CC6B0F5F7
:102F70006DC6B1F557EC2AF0AEC515F6AFC516F61D
:102F8000B0C517F6B1C518F663EC46F011C666F683
:102F900012C667F613C668F614C669F678C611F647
:102FA00079C612F67AC613F67BC614F6000E060131
:102FB000156F000E166F200E176F410E186FCCECB8
:102FC0002EF011C678F612C679F613C67AF614C634
:102FD0007BF606015407D8A055076E4B6F2B565150
:102FE0006E5D6F51800A456F5751800A4559D8B0C0
:102FF000FCEF17F0FEEF17F00CEF18F077BF0AEFB9
:1030000018F0775109E14B0E765DD8A00AEF18F061
:103010000CEF18F0FFEF16F052515311D8A413EF34
:1030200018F015EF18F028EF18F00501BCA91BEFF8
:1030300018F01DEF18F028EF18F0000E06017625A5
:10304000D96E070E7721DA6E2E0EDF6E764B772B58
:10305000000E06017625D96E070E7721DA6E000E76
:10306000DF6E650E6419D8A438EF18F03AEF18F047
:1030700008EF19F0000E6F6F4F0E6E6F000E6E2589
:10308000D96E070E6F21DA6E000EDF6E000E5F6FD5
:10309000000E5E6F75BF51EF18F04FEF18F059EF4B
:1030A00018F0000E5F6F010E5E6F746D751FD8B063
:1030B000752B000E616F020E606F8CEF18F06E07BB
:1030C000D8A06F07000E6E25D96E070E6F21DA6E3D
:1030D00074C6A0F575C6A1F5000E0501A36F0A0E12
:1030E000A26FF8EC42F00501A051300FDF6E74C6FC
:1030F000A0F575C6A1F5000EA36F0A0EA26FD0EC65
:1031000041F0A0C574F6A1C575F606016007D8A008
:1031100061076207D8A0630774517511D8A493EFB3
:1031200018F095EF18F05FEF18F061BFA2EF18F0FC
:10313000615106E16005D8B0A0EF18F0A2EF18F0D9
:103140005FEF18F06E07D8A06F075E515F11D8A42B
:10315000ACEF18F0AEEF18F0B4EF18F0000E4D6FB2
:103160002B0E4C6FB8EF18F0000E4D6F2D0E4C6FFC
:10317000000E6E25D96E070E6F21DA6E610030F9F0
:10318000DFF46207D8A063076E07D8A06F07BF0EF1
:10319000456FFF0E466F4451476F486B45514727B7
:1031A00046514823485109E11A0E475DD8A0DBEF8C
:1031B00018F0DDEF18F0E3EF18F0000E4F6F650E1A
:1031C0004E6FE7EF18F0000E4F6F450E4E6F000E7A
:1031D0006E25D96E070E6F21DA6E610038F9DFF4C3
:1031E0006207D8A06307000E76250501A06F070EC1
:1031F000060177210501A16F000E06016E2505016C
:10320000A26F070E06016F210501A36F59EC45F06F
:103210003EC6B2F53FC6B3F5000E0501B46F070E0A
:10322000B56F62C6B6F563C6B7F564EC41F0B2C5DA
:103230003EF6B3C53FF61200000E0501756F000E95
:10324000746F30C586F531C587F532C588F533C54D
:1032500089F589BF30EF19F02EEF19F046EF19F01C
:10326000000E756F010E746F86C501F587C502F5F6
:1032700088C503F589C504F542EC48F001C586F51B
:1032800002C587F503C588F504C589F5000E05015B
:103290008D6F000E8C6FB7C678F5B8C679F574518E
:1032A0007511D8A456EF19F058EF19F05FEF19F027
:1032B000BCA55DEF19F05FEF19F079EF19F07451CB
:1032C0007511D8A466EF19F068EF19F06EEF19F0D8
:1032D000000E616F2B0E606F72EF19F0000E616FC0
:1032E0002D0E606F60C500F78C4B8D2B7807D8A032
:1032F000790786C501F587C502F588C503F589C537
:1033000004F5EAEC3FF001040210D8A48AEF19F0AA
:103310008CEF19F0D7EF19F0BF0E356EFF0E366E39
:103320003450376E386A3550372636503822385088
:1033300007E11A0E375CD8B0A0EF19F0A2EF19F030
:10334000B1EF19F0000E05018C25016E070E8D21DD
:10335000026E6B0E036E250E046E8DEC45F0BEEF13
:1033600019F0000E05018C25016E070E8D21026EED
:10337000730E036E250E046E8DEC45F00501FD0EF7
:103380007827FF0E79232EC513F52FC514F5000EEF
:10339000156E070E166E78C517F579C518F533EC5E
:1033A00042F013C52EF514C52FF54FEF1FF086C55B
:1033B00001F587C502F588C503F589C504F5EAEC72
:1033C0003FF001500210D8A4E8EF19F0EAEF19F02D
:1033D00035EF1AF0BF0E356EFF0E366E3450376E75
:1033E000386A3550372636503822385007E11A0EE1
:1033F000375CD8B0FEEF19F000EF1AF00FEF1AF0BB
:10340000000E05018C25016E070E8D21026E6F0ED8
:10341000036E250E046E8DEC45F01CEF1AF0000EC5
:1034200005018C25016E070E8D21026E770E036E4D
:10343000250E046E8DEC45F00501FD0E7827FF0E7C
:1034400079232EC513F52FC514F5000E156E070E42
:10345000166E78C517F579C518F533EC42F013C52B
:103460002EF514C52FF54FEF1FF0000E05018E6FDE
:10347000000E8F6F800E906F3F0E916F000E8B6F5E
:10348000000E8A6F86C501F587C502F588C503F56C
:1034900089C504F5000E056E000E066E000E076E5F
:1034A000000E086EFFEC43F0D8B059EF1AF05BEF56
:1034B0001AF0DEEF1AF07AEF1AF08EC501F58FC51B
:1034C00002F590C503F591C504F5000E056E000EDA
:1034D000066E200E076E410E086EA5EC2CF001C59D
:1034E0008EF502C58FF503C590F504C591F505016C
:1034F0008A4B8B2B86C51AF587C51BF588C51CF52D
:1035000089C51DF5000E056E000E066E200E076EB5
:10351000410E086E8EC501F58FC502F590C503F505
:1035200091C504F5A5EC2CF001C51EF502C51FF5EB
:1035300003C520F504C521F5E8EC3EF0D8B0A3EFB3
:103540001AF0A5EF1AF05DEF1AF0C5EF1AF08EC56C
:1035500001F58FC502F590C503F591C504F5000E80
:10356000056E000E066E200E076E410E086E9AEC78
:1035700030F001C58EF502C58FF503C590F504C581
:1035800091F505018A07D8A08B0786C51AF587C56E
:103590001BF588C51CF589C51DF58EC51EF58FC5A3
:1035A0001FF590C520F591C521F5E8EC3EF0D8A0B7
:1035B000DCEF1AF0DEEF1AF0A7EF1AF034C503F5CE
:1035C000046AABEC46F0035005017B6F7BC57AF5CE
:1035D000670E7B19D8A4EFEF1AF0F1EF1AF019EF8C
:1035E0001BF00601B951BA11D8A4F9EF1AF0FBEF9C
:1035F0001AF0FFEF1AF0000EBA6F010EB96FBABFE2
:103600000CEF1BF0BA5106E1B905D8B00AEF1BF078
:103610000CEF1BF013EF1BF0000E0501776F060E89
:10362000766F23EF1BF0B9C676F5BAC677F523EFB0
:103630001BF00601BABF1FEF1BF021EF1BF00CEFD0
:103640001BF013EF1BF0670E05017B19D8A42BEFBD
:103650001BF02DEF1BF05CEF1BF08BAF3BEF1BF073
:10366000FC0E8A5DFF0E8B59D8A039EF1BF03BEFA3
:103670001BF05AEF1BF0FF0E356EFF0E366E76C54F
:1036800037F577C538F535503726365038228A5108
:10369000375C3850800A396E8B51800A3958D8A06F
:1036A00054EF1BF056EF1BF05AEF1BF0660E7A6FCB
:1036B0005CEF1BF0650E7A6F76C56CF577C56DF51E
:1036C000670E7B19D8A467EF1BF069EF1BF079EF49
:1036D0001BF0660E7A19D8A470EF1BF072EF1BF086
:1036E0007BEF1BF08BBF79EF1BF077EF1BF07BEFCD
:1036F0001BF06C4B6D2B660E7A19D8A482EF1BF071
:1037000084EF1BF0A4EF1BF08BBF8BEF1BF089EF56
:103710001BF097EF1BF0000E8E6F000E8F6F800E68
:10372000906F3F0E916F000E8B6F000E8A6F670EC9
:103730007B19D8B49EEF1BF0A0EF1BF0A4EF1BF099
:103740008A516C278B516D23000E856F000E846F9C
:1037500086C57CF587C57DF588C57EF589C57FF56D
:103760008EC56EF58FC56FF590C570F591C571F575
:1037700035EF1CF07CC501F57DC502F57EC503F56E
:103780007FC504F58EC505F58FC506F590C507F50F
:1037900091C508F59AEC30F001C51AF502C51BF584
:1037A00003C51CF504C51DF56CEC36F01AC580F593
:1037B0001BC581F51CC582F51DC583F580C501F5C6
:1037C00081C502F582C503F583C504F565EC3EF0BD
:1037D00001C572F502C573F57CC51AF57DC51BF5EB
:1037E0007EC51CF57FC51DF58EC505F58FC506F593
:1037F00090C507F591C508F580C501F581C502F5AD
:1038000082C503F583C504F5A5EC2CF001C51EF5B2
:1038100002C51FF503C520F504C521F5CEEC46F021
:103820001AC57CF51BC57DF51CC57EF51DC57FF54C
:103830008EC501F58FC502F590C503F591C504F558
:10384000000E056E000E066E200E076E410E086E0D
:103850009AEC30F001C58EF502C58FF503C590F5E1
:1038600004C591F50501844B852B6C51845D855110
:10387000800A356E6D51800A3558D8A042EF1CF091
:1038800044EF1CF0BAEF1BF08EC501F58FC502F5B1
:1038900090C503F591C504F5000E056E000E066E89
:1038A000A00E076E400E086EA5EC2CF001C580F549
:1038B00002C581F503C582F504C583F57CC51AF5FB
:1038C0007DC51BF57EC51CF57FC51DF580C51EF5A4
:1038D00081C51FF582C520F583C521F5E8EC3EF0D2
:1038E000D8B075EF1CF077EF1CF082EF1CF0000EE3
:1038F0000501806F000E816F000E826F000E836FD6
:10390000ABEF1CF07CC501F57DC502F57EC503F566
:103910007FC504F580C505F581C506F582C507F5A7
:1039200083C508F5FFEC43F0D8A099EF1CF09BEF9E
:103930001CF0ABEF1CF0050172B1A1EF1CF0A3EF7E
:103940001CF0ABEF1CF0000E806F000E816F000EBC
:10395000826F000E836F86C501F587C502F588C5A5
:1039600003F589C504F580C505F581C506F582C551
:1039700007F583C508F5F7EC27F001C57CF502C50E
:103980007DF503C57EF504C57FF57CC51AF57DC5BB
:103990001BF57EC51CF57FC51DF5000E056E000EDE
:1039A000066E200E076E410E086E6EC501F56FC5DE
:1039B00002F570C503F571C504F5A5EC2CF001C541
:1039C0001EF502C51FF503C520F504C521F5E8EC79
:1039D0003EF0D8A0EEEF1CF0F0EF1CF019EF1DF058
:1039E00005018A4B8B2B6EC501F56FC502F570C5BD
:1039F00003F571C504F5000E056E000E066E200E6F
:103A0000076E410E086EA5EC2CF001C56EF502C5DF
:103A10006FF503C570F504C571F5660E05017A19D9
:103A2000D8A415EF1DF017EF1DF019EF1DF06C4B2A
:103A30006D2B6EC58EF56FC58FF570C590F571C590
:103A400091F5650E05017A19D8B429EF1DF02BEF19
:103A50001DF031EF1DF08AC56AF58BC56BF535EFAA
:103A60001DF0000E6B6F000E6A6F000E696F000E86
:103A7000686F000E676F000E666F000E856F000E98
:103A8000846F30EF1EF07CC501F57DC502F57EC563
:103A900003F57FC504F58EC505F58FC506F590C500
:103AA00007F591C508F59AEC30F001C51AF502C585
:103AB0001BF503C51CF504C51DF56CEC36F01AC5E5
:103AC00080F51BC581F51CC582F51DC583F580C534
:103AD00001F581C502F582C503F583C504F565ECE2
:103AE0003EF001C572F502C573F50501BCB97BEF67
:103AF0001DF07DEF1DF09AEF1DF072517311D8A4E7
:103B000084EF1DF086EF1DF09AEF1DF0670E7B1914
:103B1000D8A48DEF1DF08FEF1DF09AEF1DF06BBF55
:103B200096EF1DF094EF1DF09AEF1DF0664B672B9A
:103B3000E4EF1DF068516911D8A4A1EF1DF0A3EFC7
:103B40001DF0CDEF1DF06BBFAAEF1DF0A8EF1DF02B
:103B5000CDEF1DF0000E8C25D96E070E8D21DA6E8B
:103B60002E0EDF6E8C4B8D2B7807D8A07907000EB8
:103B7000696F010E686FCDEF1DF0000E8C25D96EB8
:103B8000070E8D21DA6E300EDF6E8C4B8D2B780791
:103B9000D8A079076607D8A0670766516711D8A42F
:103BA000D4EF1DF0D6EF1DF0BDEF1DF0000E8C25FB
:103BB000D96E070E8D21DA6E7251300FDF6E8C4B8D
:103BC0008D2B7807D8A079077CC51AF57DC51BF524
:103BD0007EC51CF57FC51DF58EC505F58FC506F59F
:103BE00090C507F591C508F580C501F581C502F5B9
:103BF00082C503F583C504F5A5EC2CF001C51EF5BF
:103C000002C51FF503C520F504C521F5CEEC46F02D
:103C10001AC57CF51BC57DF51CC57EF51DC57FF558
:103C20008EC501F58FC502F590C503F591C504F564
:103C3000000E056E000E066E200E076E410E086E19
:103C40009AEC30F001C58EF502C58FF503C590F5ED
:103C500004C591F505016A07D8A06B07844B852B35
:103C60006C51845D8551800A356E6D51800A3558DE
:103C7000D8B03DEF1EF03FEF1EF04DEF1EF08DBFB0
:103C80004BEF1EF08D5109E14B0E8C5DD8A04BEF30
:103C90001EF04DEF1EF043EF1DF068516911D8A4DE
:103CA00054EF1EF056EF1EF067EF1EF0BCA95BEF5D
:103CB0001EF05DEF1EF067EF1EF0000E8C25D96E32
:103CC000070E8D21DA6E2E0EDF6E8C4B8D2B000EC3
:103CD0008C25D96E070E8D21DA6E000EDF6E650E13
:103CE0007A19D8A476EF1EF078EF1EF03DEF1FF0A2
:103CF000000E856F4F0E846F000E8425D96E070E5F
:103D00008521DA6E000EDF6E000E756F000E746F87
:103D10008BBF8FEF1EF08DEF1EF097EF1EF0000EA1
:103D2000756F010E746F8A6D8B1FD8B08B2B000ED0
:103D3000776F020E766FC8EF1EF08407D8A0850754
:103D4000000E8425D96E070E8521DA6E8AC501F52D
:103D50008BC502F5000E046E0A0E036E51EC43F0A3
:103D60000150300FDF6E8AC501F58BC502F5000EDC
:103D7000046E0A0E036E96EC42F001C58AF502C588
:103D80008BF505017607D8A077077807D8A07907C3
:103D90008A518B11D8A4CFEF1EF0D1EF1EF09DEF0A
:103DA0001EF077BFDEEF1EF0775106E17605D8B042
:103DB000DCEF1EF0DEEF1EF09DEF1EF08407D8A0B2
:103DC000850774517511D8A4E8EF1EF0EAEF1EF0D4
:103DD000F0EF1EF0000E636F2B0E626FF4EF1EF01B
:103DE000000E636F2D0E626F000E8425D96E070ED4
:103DF0008521DA6E610088F5DFF47807D8A07907AD
:103E00008407D8A08507BF0E356EFF0E366E34507E
:103E1000376E386A3550372636503822385009E127
:103E20001A0E375CD8A017EF1FF019EF1FF01FEF25
:103E30001FF0000E656F650E646F23EF1FF0000E1C
:103E4000656F450E646F000E8425D96E070E8521BF
:103E5000DA6E610090F5DFF47807D8A07907000EDC
:103E60008C25016E070E8D21026E000E8425036ED7
:103E7000070E8521046E8DEC45F02EC513F52FC578
:103E800014F5000E156E070E166E78C517F579C578
:103E900018F533EC42F013C52EF514C52FF51200BA
:103EA0006100F8F9D9F46100FCF9DAF4DEC4F6F443
:103EB000DDC4F7F4000EF86E0800F550250AD8A40A
:103EC00064EF1FF066EF1FF057EF22F06100F8F982
:103ED000D9F46100FCF9DAF4DE2A000EDD22000ECE
:103EE0000601B86F000EB76FB7C6BCF5B8C6BDF512
:103EF000B969BA696100F8F9D9F46100FCF9DAF43A
:103F0000DEC4F6F4DDC4F7F4000EF86E0800F550D8
:103F10002E0AD8A48EEF1FF090EF1FF01BEF20F0B9
:103F2000000EBA6F000EB96F6100F8F9D9F46100A4
:103F3000FCF9DAF4DE2A000EDD226100F8F9D9F48A
:103F40006100FCF9DAF4DEC4F6F4DDC4F7F4000E27
:103F5000F86E0800F5502A0AD8A4B1EF1FF0B3EFAD
:103F60001FF0DAEF1FF06100F8F9D9F46100FCF9F5
:103F7000DAF4DE2A000EDD22610000FAD9F46100D5
:103F800004FADAF461007CF382F6020EDE266100A8
:103F90007CF383F6000EDD22610008FAD9F461009B
:103FA0000CFADAF4610078F3B9F6610074F3BAF64A
:103FB0001BEF20F06100F8F9D9F46100FCF9DAF4A4
:103FC000610078F3A7F5610074F3A8F5E8EC39F027
:103FD000A7C5B9F6A8C5BAF6F7EF1FF06100F8F962
:103FE000D9F46100FCF9DAF4DE2A000EDD22D00EED
:103FF0000601826FFF0E836F6100F8F9D9F461004A
:10400000FCF9DAF4DEC4F6F4DDC4F7F4000EF86E61
:104010000800F550846F856B825184278351852376
:10402000855109E10A0E845DD8A019EF20F01BEF3D
:1040300020F0EEEF1FF06100F8F9D9F46100FCF90F
:10404000DAF4DEC4F6F4DDC4F7F4000EF86E08000E
:10405000F5500501A66FA76B3FEC46F00501A65190
:104060000601936F9351D8B438EF20F03AEF20F067
:1040700088EF20F06100F8F9D9F46100FCF9DAF476
:10408000610078F382F6610074F383F6010E8227F3
:10409000000E8323610008FAF6F461000CFAF7F4CD
:1040A000000EF86E0800F5500501A66FA76B3FECF7
:1040B00046F00501A6510601946F9451D8B463EF00
:1040C00020F065EF20F088EF20F06100F8F9D9F4D6
:1040D0006100FCF9DAF4610078F382F6610074F3B0
:1040E00083F6020E8227000E8323610008FAF6F49D
:1040F00061000CFAF7F4000EF86E0800F5500501A7
:10410000A66FA76B3FEC46F00501A6510601956F1F
:104110006100F8F9D9F46100FCF9DAF4DEC4F6F4D0
:10412000DDC4F7F4000EF86E0800F550640AD8B448
:104130009CEF20F09EEF20F0B4EF20F06100F8F942
:10414000D9F46100FCF9DAF4DEC4F6F4DDC4F7F466
:10415000000EF86E0800F550690AD8A4B2EF20F0FE
:10416000B4EF20F0FEEF20F06100F8F9D9F461001F
:10417000FCF9DAF4DE2A000EDD22610000FAD9F43F
:10418000610004FADAF461007CF382F6020EDE26A6
:1041900061007CF383F6000EDD22610008FAD9F499
:1041A00061000CFADAF4610078F386F6610074F3CA
:1041B00087F6000E87BFFF0E886F896F8A6F8B6F3F
:1041C0008C6F8D6F7CC60AF67DC60BF686C60CF624
:1041D00087C60DF688C60EF689C60FF68AC610F693
:1041E0008BC611F68CC612F68DC613F667EC32F04C
:1041F0000AC67CF60BC67DF679EF22F0660E93199F
:10420000D8A405EF21F007EF21F058EF21F061006D
:10421000F8F9D9F46100FCF9DAF4DEC4F6F4DDC48F
:10422000F7F4000EF86E08006100D4F392F6610016
:10423000F8F9D9F46100FCF9DAF4DE2A000EDD2287
:10424000610000FAD9F4610004FADAF461007CF349
:1042500082F6040EDE2661007CF383F6000EDD227A
:10426000610008FAD9F461000CFADAF4610078F31D
:104270008EF6610078F38FF6610078F390F66100B6
:1042800078F391F67CC63EF67DC63FF68EC640F6C4
:104290008FC641F690C642F691C643F692C644F6E2
:1042A000C0EC12F03EC67CF63FC67DF679EF22F0F8
:1042B000930E0501A06F060EA16F7B0EA26F250E57
:1042C000A36F000EA56F020EA46F69EC40F005010C
:1042D000A051A111D8A46FEF21F071EF21F017EFD9
:1042E00022F06100F8F9D9F46100FCF9DAF4610018
:1042F00078F382F6610074F383F6010E06018227DB
:10430000000E8323610008FAF6F461000CFAF7F45A
:10431000000EF86E08006100D4F392F6BF0E826FB3
:10432000FF0E836F6100F8F9D9F46100FCF9DAF44B
:10433000DEC4F6F4DDC4F7F4000EF86E0800F550A4
:10434000846F856B8251842783518523855107E1D2
:104350001A0E845DD8B0AFEF21F0B1EF21F0D5EFA8
:1043600021F0610000FAD9F4610004FADAF4610086
:104370007CF382F6040EDE2661007CF383F6000EE9
:10438000DD22610008FAD9F461000CFADAF4610068
:1043900078F38EF6610078F38FF6610078F390F68B
:1043A000610078F391F6F7EF21F0610000FAD9F49B
:1043B000610004FADAF461007CF382F6040EDE2672
:1043C00061007CF383F6000EDD22610008FAD9F467
:1043D00061000CFADAF4610078F38EF6610078F38C
:1043E0008FF6610078F390F6610078F391F6020E93
:1043F0006100F8F9D9F46100FCF9DAF4DE26000E68
:10440000DD227CC63EF67DC63FF68EC640F68FC6E0
:1044100041F690C642F691C643F692C644F6C0EC09
:1044200012F03EC67CF63FC67DF679EF22F06100C1
:10443000F8F9D9F46100FCF9DAF4DEC4F6F4DDC46D
:10444000F7F4000EF86E0800F550250AD8A42BEFFB
:1044500022F02DEF22F047EF22F06100F8F9D9F4B5
:104460006100FCF9DAF4DE2A000EDD22000EA36FF3
:10447000250EA26F7CC6A4F57DC6A5F554EC44F0CC
:10448000000E06017D6F010E7C6F79EF22F0610056
:10449000F8F9D9F46100FCF9DAF4DE2A000EDD2225
:1044A000000E06017D6F000E7C6F79EF22F0610037
:1044B000F8F9D9F46100FCF9DAF4DEC4F6F4DDC4ED
:1044C000F7F4000EF86E0800F5500501A26FA36B1B
:1044D0007CC6A4F57DC6A5F554EC44F06100F8F95E
:1044E000D9F46100FCF9DAF4DE2A000EDD2240EF97
:1044F00022F01200610050F6D9F4610054F6DAF4AB
:10450000DEC4F6F4DDC4F7F4000EF86E0800F550D2
:10451000250AD8A48EEF22F090EF22F074EF25F058
:10452000610050F6D9F4610054F6DAF4DE2A000E88
:10453000DD22000E0601B86F000EB76FB7C6BCF5DE
:10454000B8C6BDF5B969BA69610050F6D9F4610021
:1045500054F6DAF4DEC4F6F4DDC4F7F4000EF86EB7
:104560000800F5502E0AD8A4B8EF22F0BAEF22F0D6
:1045700044EF23F0000EBA6F000EB96F610050F6E1
:10458000D9F4610054F6DAF4DE2A000EDD2261006F
:1045900050F6D9F4610054F6DAF4DEC4F6F4DDC462
:1045A000F7F4000EF86E0800F5502A0AD8A4DBEFE5
:1045B00022F0DDEF22F004EF23F0610050F6D9F491
:1045C000610054F6DAF4DE2A000EDD22610058F6AE
:1045D000D9F461005CF6DAF461007CF342F5020E76
:1045E000DE2661007CF343F5000EDD22610008F554
:1045F000D9F461000CF5DAF4610078F3B9F66100E2
:1046000074F3BAF644EF23F0610050F6D9F4610078
:1046100054F6DAF4610078F307F5610074F308F5F5
:10462000A9EC3AF007C5B9F608C5BAF621EF23F0B0
:10463000610050F6D9F4610054F6DAF4DE2A000E77
:10464000DD22D00E426EFF0E436E610050F6D9F4AB
:10465000610054F6DAF4DEC4F6F4DDC4F7F4000EBB
:10466000F86E0800F550446E456A425044264350A7
:104670004522455009E10A0E445CD8A042EF23F0E0
:1046800044EF23F018EF23F0610050F6D9F46100F5
:1046900054F6DAF4DEC4F6F4DDC4F7F4000EF86E76
:1046A0000800F550036E046AABEC46F00350526EFE
:1046B0005250D8B45EEF23F060EF23F0A8EF23F060
:1046C000610050F6D9F4610054F6DAF4610078F331
:1046D00042F5610074F343F5010E4226000E4322B9
:1046E000610008F5F6F461000CF5F7F4000EF86EC1
:1046F0000800F550036E046AABEC46F00350536EAD
:104700005350D8B486EF23F088EF23F0A8EF23F0BE
:10471000610050F6D9F4610054F6DAF4610078F3E0
:1047200042F5610074F343F5020E4226000E432267
:10473000610008F5F6F461000CF5F7F4000EF86E70
:104740000800F550036E046AABEC46F00350546E5B
:10475000610050F6D9F4610054F6DAF4DEC4F6F4E0
:10476000DDC4F7F4000EF86E0800F550640AD8B402
:10477000BCEF23F0BEEF23F0D4EF23F0610050F63E
:10478000D9F4610054F6DAF4DEC4F6F4DDC4F7F4CB
:10479000000EF86E0800F550690AD8A4D2EF23F095
:1047A000D4EF23F01EEF24F0610050F6D9F461003D
:1047B00054F6DAF4DE2A000EDD22610058F6D9F450
:1047C00061005CF6DAF461007CF342F5020EDE264D
:1047D00061007CF343F5000EDD22610008F5D9F499
:1047E00061000CF5DAF4610078F346F5610074F3CA
:1047F00047F5000E47BEFF0E486E496E4A6E4B6E7F
:104800004C6E4D6E92C51EF593C51FF546C520F53D
:1048100047C521F548C522F549C523F54AC524F504
:104820004BC525F54CC526F54DC527F5EBEC33F00A
:104830001EC592F51FC593F595EF25F0660E52182B
:10484000D8A425EF24F027EF24F078EF24F06100BE
:1048500050F6D9F4610054F6DAF4DEC4F6F4DDC49F
:10486000F7F4000EF86E08006100D4F355F561000E
:1048700050F6D9F4610054F6DAF4DE2A000EDD2297
:10488000610058F6D9F461005CF6DAF461007CF35B
:1048900042F5040EDE2661007CF343F5000EDD22B6
:1048A000610008F5D9F461000CF5DAF4610078F3E1
:1048B0004EF5610078F34FF5610078F350F5610033
:1048C00078F351F592C52EF593C52FF54EC530F509
:1048D0004FC531F550C532F551C533F555C534F5E1
:1048E0001CEC19F02EC592F52FC593F595EF25F028
:1048F000520E016E050E026E7B0E036E250E046EC7
:10490000000E066E020E056EE7EC40F0015002103C
:10491000D8A48DEF24F08FEF24F034EF25F0610060
:1049200050F6D9F4610054F6DAF4610078F342F5F8
:10493000610074F343F5010E4226000E432261002C
:1049400008F5F6F461000CF5F7F4000EF86E0800B7
:104950006100D4F355F5BF0E426EFF0E436E610049
:1049600050F6D9F4610054F6DAF4DEC4F6F4DDC48E
:10497000F7F4000EF86E0800F550446E456A425098
:10498000442643504522455007E11A0E445CD8B0F6
:10499000CCEF24F0CEEF24F0F2EF24F0610058F6D3
:1049A000D9F461005CF6DAF461007CF342F5040EA0
:1049B000DE2661007CF343F5000EDD22610008F580
:1049C000D9F461000CF5DAF4610078F34EF561007A
:1049D00078F34FF5610078F350F5610078F351F505
:1049E00014EF25F0610058F6D9F461005CF6DAF4B2
:1049F00061007CF342F5040EDE2661007CF343F592
:104A0000000EDD22610008F5D9F461000CF5DAF43E
:104A1000610078F34EF5610078F34FF5610078F3AB
:104A200050F5610078F351F5020E610050F6D9F4AB
:104A3000610054F6DAF4DE26000EDD2292C52EF572
:104A400093C52FF54EC530F54FC531F550C532F53C
:104A500051C533F555C534F51CEC19F02EC592F54A
:104A60002FC593F595EF25F0610050F6D9F461005C
:104A700054F6DAF4DEC4F6F4DDC4F7F4000EF86E92
:104A80000800F550250AD8A448EF25F04AEF25F094
:104A900064EF25F0610050F6D9F4610054F6DAF4C1
:104AA000DE2A000EDD22000E046E250E036E92C576
:104AB00005F593C506F5A0EC44F0000E0501936FD3
:104AC000010E926F95EF25F0610050F6D9F4610068
:104AD00054F6DAF4DE2A000EDD22000E0501936F93
:104AE000000E926F95EF25F0610050F6D9F4610049
:104AF00054F6DAF4DEC4F6F4DDC4F7F4000EF86E12
:104B00000800F550036E046A92C505F593C506F5D5
:104B1000A0EC44F0610050F6D9F4610054F6DAF4E8
:104B2000DE2A000EDD225DEF25F012000501A35103
:104B3000800BAC6FA351A325AE6FA2AFA2EF25F0FF
:104B4000A4EF25F0A5EF25F0AE81AE51D8B4ABEFC0
:104B500025F0ADEF25F0C2EF25F0AE29D8A4B3EFD4
:104B600025F0B5EF25F0BDEF25F0000EA06F000E8B
:104B7000A16F000EA26F000EA36FA28F000EA36F95
:104B8000CAEF25F0000EA06F000EA16F000EA26FFD
:104B9000000EA36FA751800BAD6FAC51AD19D8B407
:104BA000D4EF25F0D6EF25F0D7EF25F0AC8DA75147
:104BB000A725AD6FA6AFDFEF25F0E1EF25F0E2EF1F
:104BC00025F0AD81AD51D8B4E8EF25F0EAEF25F03E
:104BD000FFEF25F0AD29D8A4F0EF25F0F2EF25F096
:104BE000FAEF25F0000EA46F000EA56F000EA66F61
:104BF000000EA76FA68F000EA76F07EF26F0000E1E
:104C0000A46F000EA56F000EA66F000EA76FAE5129
:104C1000AD5DD8B00EEF26F010EF26F037EF26F09E
:104C2000ACAD15EF26F017EF26F019EF26F0800E49
:104C3000AC1BAEC5AFF5ADC5AEF5AFC5ADF5A0C506
:104C4000AFF5A4C5A0F5AFC5A4F5A1C5AFF5A5C541
:104C5000A1F5AFC5A5F5A2C5AFF5A6C5A2F5AFC52F
:104C6000A6F5A3C5AFF5A7C5A3F5AFC5A7F5000E7B
:104C7000AF6FAE51ADC5A8F5A96BA85F000EA95BDB
:104C8000A9BF4CEF26F0A95109E11A0EA85DD8A0E2
:104C90004CEF26F04EEF26F085EF26F0A051A11143
:104CA000A211A311D8A457EF26F05AEF26F0010E57
:104CB0005BEF26F0000EAF6F000EA06F000EA16F2D
:104CC000000EA26F000EA36FADC5AEF58EEF26F0FD
:104CD000AFA16DEF26F06FEF26F075EF26F0D890BC
:104CE000AF310109AF6F77EF26F0D890AF33A0A1B5
:104CF0007CEF26F07EEF26F07FEF26F0AF8FA33516
:104D0000A333A233A133A033AE2BAD51AE5DD8A0F7
:104D10008CEF26F08EEF26F068EF26F0ACBD93EF17
:104D200026F095EF26F0D5EF26F0AE51D8A49BEFF4
:104D300026F09DEF26F0A7EF26F0000EA06F000EE4
:104D4000A16F000EA26F000EA36FF6EF27F0A45123
:104D5000A027A551A123A651A223A751A323A3A114
:104D6000B4EF26F0B6EF26F062EF27F0AFA1BBEF6D
:104D700026F0BDEF26F0C3EF26F0D890AF31010941
:104D8000AF6FC5EF26F0D890AF33A0A1CAEF26F0E1
:104D9000CCEF26F0CDEF26F0AF8FA335A333A233AF
:104DA000A133A033AE2B62EF27F0A451A05DA55133
:104DB000A159A651A259A351800AA86FA751800AF0
:104DC000A859D8B0E6EF26F0E8EF26F013EF27F069
:104DD000A051A45DA86FA151A559A96FA251A659D0
:104DE000AA6FA351A759AB6FFF0EA825A06FFF0EA6
:104DF000A921A16FFF0EAA21A26FFF0EAB21A36F05
:104E0000800EAC1BAF6DAF51D8A409EF27F00BEFAC
:104E100027F01BEF27F0010EA027000EA123A223ED
:104E2000A3231BEF27F0A451A05FA551A15BA651BE
:104E3000A25BA751A35BA051A111A211A311D8A4F9
:104E400024EF27F026EF27F05BEF27F0AF51D8A42F
:104E50002CEF27F02EEF27F05BEF27F0000EA06F6E
:104E6000000EA16F000EA26F000EA36FF6EF27F0E9
:104E7000D890A037A137A237A337AFAF42EF27F0C2
:104E800044EF27F045EF27F0A081AFA14AEF27F0CC
:104E90004CEF27F050EF27F0D880AF3752EF27F0D4
:104EA000D890AF37AE51D8B458EF27F05AEF27F06B
:104EB0005BEF27F0AE07A2AF60EF27F062EF27F0BD
:104EC00038EF27F0000EAD6FAFAF69EF27F06BEF53
:104ED00027F083EF27F0AFC5A8F57F0EA817D8B449
:104EE00074EF27F076EF27F07AEF27F0010EAD6F21
:104EF00083EF27F0A0A17FEF27F081EF27F083EF6A
:104F000027F076EF27F0AD51D8B489EF27F08BEF7B
:104F100027F0B6EF27F0010EA027000EA123A22351
:104F2000A323A3A196EF27F098EF27F0B6EF27F081
:104F3000A0C5A8F5A1C5A9F5A2C5AAF5A3C5ABF55D
:104F4000AB35AB33AA33A933A833A8C5A0F5A9C59F
:104F5000A1F5AAC5A2F5ABC5A3F5AE29D8B4B3EFA8
:104F600027F0B5EF27F0B6EF27F0AE2BAE29D8B477
:104F7000BCEF27F0BEEF27F0C6EF27F0AE51D8A464
:104F8000C4EF27F0C6EF27F0D8EF27F0000EA06F90
:104F9000000EA16F000EA26F000EA36FAE51D8A439
:104FA000D4EF27F0D6EF27F0D8EF27F0000EAC6F44
:104FB000AEA1DDEF27F0DFEF27F0E2EF27F0A28FC1
:104FC000E3EF27F0A29FD890AE31A36FACAFEBEF29
:104FD00027F0EDEF27F0EEEF27F0A38FA0C5A0F5A7
:104FE000A1C5A1F5A2C5A2F5A3C5A3F51200045061
:104FF000800B0D6E045004240F6E03AE02EF28F0F8
:1050000004EF28F005EF28F00F800F50D8B40BEF15
:1050100028F00DEF28F022EF28F00F28D8A413EF86
:1050200028F015EF28F01DEF28F0000E016E000E9D
:10503000026E000E036E000E046E038E000E046EF0
:105040002AEF28F0000E016E000E026E000E036EB5
:10505000000E046E0850800B0E6E0D500E18D8B462
:1050600034EF28F036EF28F037EF28F00D8C085099
:1050700008240E6E07AE3FEF28F041EF28F042EF14
:1050800028F00E800E50D8B448EF28F04AEF28F0F0
:105090005FEF28F00E28D8A450EF28F052EF28F048
:1050A0005AEF28F0000E056E000E066E000E076E19
:1050B000000E086E078E000E086E67EF28F0000ED7
:1050C000056E000E066E000E076E000E086E0F5085
:1050D0000E5CD8B06EEF28F070EF28F097EF28F054
:1050E0000DAC75EF28F077EF28F079EF28F0800EFF
:1050F0000D1A0FC510F50EC50FF510C50EF501C53B
:1051000010F505C501F510C505F502C510F506C574
:1051100002F510C506F503C510F507C503F510C562
:1051200007F504C510F508C504F510C508F5000E0F
:10513000106E0F500EC509F50A6A095E000E0A5A74
:105140000ABEACEF28F00A5009E11A0E095CD8A09B
:10515000ACEF28F0AEEF28F0E5EF28F00150021098
:1051600003100410D8A4B7EF28F0BAEF28F0010E0E
:10517000BBEF28F0000E106E000E016E000E026EE6
:10518000000E036E000E046E0EC50FF5EEEF28F054
:1051900010A0CDEF28F0CFEF28F0D5EF28F0D89071
:1051A00010300109106ED7EF28F0D890103201A00E
:1051B000DCEF28F0DEEF28F0DFEF28F0108E04346B
:1051C00004320332023201320F2A0E500F5CD8A093
:1051D000ECEF28F0EEEF28F0C8EF28F00DBCF3EF6D
:1051E00028F0F5EF28F035EF29F00F50D8A4FBEFA9
:1051F00028F0FDEF28F007EF29F0000E016E000EF9
:10520000026E000E036E000E046E56EF2AF005507B
:10521000012606500222075003220850042204A04F
:1052200014EF29F016EF29F0C2EF29F010A01BEFC0
:1052300029F01DEF29F023EF29F0D8901030010953
:10524000106E25EF29F0D890103201A02AEF29F036
:105250002CEF29F02DEF29F0108E043404320332A4
:10526000023201320F2AC2EF29F00550015C0650CC
:105270000258075003580450800A096E0850800AEB
:105280000958D8B046EF29F048EF29F073EF29F01C
:105290000150055C096E025006580A6E035007580B
:1052A0000B6E045008580C6EFF0E0924016EFF0EA1
:1052B0000A20026EFF0E0B20036EFF0E0C20046E00
:1052C000800E0D1A106C1050D8A469EF29F06BEF06
:1052D00029F07BEF29F0010E0126000E02220322A5
:1052E00004227BEF29F00550015E0650025A075058
:1052F000035A0850045A0150021003100410D8A495
:1053000084EF29F086EF29F0BBEF29F01050D8A4E4
:105310008CEF29F08EEF29F0BBEF29F0000E016E23
:10532000000E026E000E036E000E046E56EF2AF0A1
:10533000D890013602360336043610AEA2EF29F0BB
:10534000A4EF29F0A5EF29F0018010A0AAEF29F021
:10535000ACEF29F0B0EF29F0D8801036B2EF29F089
:10536000D89010360F50D8B4B8EF29F0BAEF29F022
:10537000BBEF29F00F0603AEC0EF29F0C2EF29F012
:1053800098EF29F0000E0E6E10AEC9EF29F0CBEFAA
:1053900029F0E3EF29F010C509F57F0E0916D8B4FE
:1053A000D4EF29F0D6EF29F0DAEF29F0010E0E6ED6
:1053B000E3EF29F001A0DFEF29F0E1EF29F0E3EFBF
:1053C00029F0D6EF29F00E50D8B4E9EF29F0EBEF31
:1053D00029F016EF2AF0010E0126000E0222032208
:1053E000042204A0F6EF29F0F8EF29F016EF2AF0D6
:1053F00001C509F502C50AF503C50BF504C50CF591
:105400000C340C320B320A32093209C501F50AC5D7
:1054100002F50BC503F50CC504F50F28D8B413EF3E
:105420002AF015EF2AF016EF2AF00F2A0F28D8B429
:105430001CEF2AF01EEF2AF026EF2AF00F50D8A416
:1054400024EF2AF026EF2AF038EF2AF0000E016E42
:10545000000E026E000E036E000E046E0F50D8A4F4
:1054600034EF2AF036EF2AF038EF2AF0000E0D6EF6
:105470000FA03DEF2AF03FEF2AF042EF2AF0038E13
:1054800043EF2AF0039ED8900F30046E0DAE4BEF21
:105490002AF04DEF2AF04EEF2AF0048E01C501F5F7
:1054A00002C502F503C503F504C504F512000501A4
:1054B000B151800B0601046F0501B151B125060100
:1054C0000A6F0501B0AF67EF2AF069EF2AF06BEFC2
:1054D0002AF006010A8106010A51D8B472EF2AF0B7
:1054E00074EF2AF089EF2AF00A29D8A47AEF2AF07B
:1054F0007CEF2AF085EF2AF0000E0501AE6F000E5A
:10550000AF6F000EB06F000EB16F0501B08F92EF5C
:105510002AF0000E0501AE6F000EAF6F000EB06FE7
:10552000000EB16FB551800B0601041B0501B5518A
:10553000B5250601056F0501B4AFA1EF2AF0A3EF71
:105540002AF0A5EF2AF00601058106010551D8B41D
:10555000ACEF2AF0AEEF2AF0C3EF2AF00529D8A469
:10556000B4EF2AF0B6EF2AF0BFEF2AF0000E0501E3
:10557000B26F000EB36F000EB46F000EB56F050171
:10558000B48FCCEF2AF0000E0501B26F000EB36F9E
:10559000000EB46F000EB56F06010551D8B4D3EFFD
:1055A0002AF0D5EF2AF0DDEF2AF00A51D8A4DBEF7C
:1055B0002AF0DDEF2AF0E8EF2AF0000E0501AE6FC9
:1055C000000EAF6F000EB06F000EB16FA4EF2CF0A5
:1055D0000501B451AE036100CCF30FF66100D0F3C6
:1055E00010F606010F51066F076B086B096B10511F
:1055F0000B6F0C6B0D6B0E6B0501B351AF036100AC
:10560000CCF30FF66100D0F310F606010F51062718
:10561000000E07230823092310510B27000E0C232B
:105620000D230E230501B251B0036100CCF30FF638
:105630006100D0F310F606010F510627000E072374
:105640000823092310510B27000E0C230D230E23D2
:1056500008C609F607C608F606C607F6066B050172
:10566000B251AF036100CCF30FF66100D0F310F636
:1056700006010F51062710510723000E0823000EC4
:1056800009230501B351AE036100CCF30FF66100AD
:10569000D0F310F606010F51062710510723000E14
:1056A0000823000E092308C609F607C608F606C631
:1056B00007F6066B0501B251AE036100CCF30FF69D
:1056C0006100D0F310F606010F5106271051072391
:1056D000000E0823000E09230501B451AF03610039
:1056E000CCF30FF66100D0F310F606010F510B2733
:1056F00010510C23000E0D23000E0E230501B35193
:10570000B0036100CCF30FF66100D0F310F6060190
:105710000F510B2710510C23000E0D23000E0E23EA
:105720000501B451B0036100CCF30FF66100D0F372
:1057300010F606010F51006F1051016F026B036BE1
:1057400002C603F601C602F600C601F6006B005160
:105750000B2701510C2302510D2303510E2306C6C2
:1057600000F607C601F608C602F609C603F6190ECA
:10577000BFEF2BF0D8900333023301330033E82E10
:10578000BAEF2BF000510B2701510C2302510D23CE
:1057900003510E2308C609F607C608F606C607F623
:1057A000066B05510AC600F6016B0027000E0123A7
:1057B000820E00250F6FFF0E0121106FF5EF2BF009
:1057C000D8900B370C370D370E3709AFEAEF2BF0B7
:1057D000ECEF2BF0EDEF2BF00B81D890063707376D
:1057E000083709370F07D8A010070DAFFAEF2BF0D5
:1057F000FCEF2BF0E0EF2BF0000E056F09AF03EF8D
:105800002CF005EF2CF029EF2CF0FF0E0615006FA1
:10581000FF0E0715016FFF0E0815026F7F0E0915A9
:10582000036F0051011102110311D8B41AEF2CF0CB
:105830001CEF2CF020EF2CF0010E056F29EF2CF05F
:105840000BA125EF2CF027EF2CF029EF2CF01CEF0B
:105850002CF00551D8B42FEF2CF031EF2CF055EF90
:105860002CF0010E0B27000E0C230D230E230EA18E
:105870003CEF2CF03EEF2CF055EF2CF00BC600F671
:105880000CC601F60DC602F60EC603F60335033349
:1058900002330133003300C60BF601C60CF602C614
:1058A0000DF603C60EF60F4B102B10BF60EF2CF059
:1058B000105108E10F29D8A060EF2CF062EF2CF016
:1058C0006CEF2CF0000E0B6F000E0C6F800E0D6F46
:1058D0007F0E0E6F9AEF2CF010BF79EF2CF0105165
:1058E00006E10F05D8B077EF2CF079EF2CF085EFBB
:1058F0002CF0000E0B6F000E0C6F000E0D6F000EE3
:105900000E6F000E046F9AEF2CF00FC60AF6FF0E12
:105910000B17FF0E0C177F0E0D17000E0E170AA1A6
:1059200094EF2CF096EF2CF097EF2CF00D8FD89091
:105930000A310E6F04510E130BC6AEF50CC6AFF54F
:105940000DC6B0F50EC6B1F512000450800B0D6EF9
:1059500004500424136E03AEB0EF2CF0B2EF2CF021
:10596000B3EF2CF013801350D8B4B9EF2CF0BBEF89
:105970002CF0CEEF2CF01328D8A4C1EF2CF0C3EFFD
:105980002CF0CBEF2CF0000E016E000E026E000E1C
:10599000036E000E046E038ED6EF2CF0000E016E27
:1059A000000E026E000E036E000E046E0850800B97
:1059B0000D1A085008240E6E07AEE1EF2CF0E3EF4D
:1059C0002CF0E4EF2CF00E800E50D8B4EAEF2CF05F
:1059D000ECEF2CF0FFEF2CF00E28D8A4F2EF2CF017
:1059E000F4EF2CF0FCEF2CF0000E056E000E066EAE
:1059F000000E076E000E086E078E07EF2DF0000EEA
:105A0000056E000E066E000E076E000E086E0E503C
:105A1000D8B40DEF2DF00FEF2DF017EF2DF0135040
:105A2000D8A415EF2DF017EF2DF021EF2DF0000E7B
:105A3000016E000E026E000E036E000E046ECBEFC0
:105A40002EF0075001026100CCF318F56100D0F38D
:105A500019F518500F6E106A116A126A1950146EF7
:105A6000156A166A176A065002026100CCF318F52F
:105A70006100D0F319F518500F26000E10221122E4
:105A8000122219501426000E152216221722055034
:105A900003026100CCF318F56100D0F319F518503A
:105AA0000F26000E10221122122219501426000E69
:105AB00015221622172211C512F510C511F50FC5B2
:105AC00010F50F6A055002026100CCF318F5610071
:105AD000D0F319F518500F2619501022000E11227C
:105AE000000E1222065001026100CCF318F561008D
:105AF000D0F319F518500F2619501022000E11225C
:105B0000000E122211C512F510C511F50FC510F5C2
:105B10000F6A055001026100CCF318F56100D0F363
:105B200019F518500F2619501022000E1122000EE0
:105B30001222075002026100CCF318F56100D0F385
:105B400019F51850142619501522000E1622000EB1
:105B50001722065003026100CCF318F56100D0F360
:105B600019F51850142619501522000E1622000E91
:105B70001722075003026100CCF318F56100D0F33F
:105B800019F51850096E19500A6E0B6A0C6A0BC58C
:105B90000CF50AC50BF509C50AF5096A0950142662
:105BA0000A5015220B5016220C5017220FC509F56A
:105BB00010C50AF511C50BF512C50CF5190EE6EF67
:105BC0002DF0D8900C320B320A320932E82EE1EF78
:105BD0002DF0095014260A5015220B5016220C5095
:105BE000172211C512F510C511F50FC510F50F6A72
:105BF0000E5013C509F50A6A0926000E0A22820E04
:105C00000924186EFF0E0A20196E1CEF2EF0D89092
:105C1000143615361636173612AE11EF2EF013EF76
:105C20002EF014EF2EF01480D8900F361036113667
:105C300012361806D8A0190616AE21EF2EF023EF63
:105C40002EF007EF2EF0000E0E6E12AE2AEF2EF0A1
:105C50002CEF2EF050EF2EF0FF0E0F14096EFF0EFA
:105C600010140A6EFF0E11140B6E7F0E12140C6EC0
:105C700009500A100B100C10D8B441EF2EF043EF6E
:105C80002EF047EF2EF0010E0E6E50EF2EF014A006
:105C90004CEF2EF04EEF2EF050EF2EF043EF2EF0A3
:105CA0000E50D8B456EF2EF058EF2EF07CEF2EF0B9
:105CB000010E1426000E15221622172217A063EFDC
:105CC0002EF065EF2EF07CEF2EF014C509F515C50A
:105CD0000AF516C50BF517C50CF50C340C320B3252
:105CE0000A32093209C514F50AC515F50BC516F5B2
:105CF0000CC517F5184A192A19BE87EF2EF019504E
:105D000008E11828D8A087EF2EF089EF2EF093EF46
:105D10002EF0000E146E000E156E800E166E7F0EA5
:105D2000176EC1EF2EF019BEA0EF2EF0195006E14C
:105D30001804D8B09EEF2EF0A0EF2EF0ACEF2EF0AE
:105D4000000E146E000E156E000E166E000E176E0D
:105D5000000E0D6EC1EF2EF018C513F5FF0E1416D0
:105D6000FF0E15167F0E1616000E171613A0BBEFAA
:105D70002EF0BDEF2EF0BEEF2EF0168ED890133021
:105D8000176E0D50171214C501F515C502F516C58D
:105D900003F517C504F5120006011451800B216F9D
:105DA00014511425286F13AFD8EF2EF0DAEF2EF030
:105DB000DBEF2EF028812851D8B4E1EF2EF0E3EF8D
:105DC0002EF0F8EF2EF02829D8A4E9EF2EF0EBEF13
:105DD0002EF0F3EF2EF0000E116F000E126F000E7A
:105DE000136F000E146F138F000E146F00EF2FF05F
:105DF000000E116F000E126F000E136F000E146F65
:105E00001851800B211B18511825296F17AF0BEF64
:105E10002FF00DEF2FF00EEF2FF029812951D8B47C
:105E200014EF2FF016EF2FF02BEF2FF02929D8A425
:105E30001CEF2FF01EEF2FF026EF2FF0000E156F46
:105E4000000E166F000E176F000E186F178F000EE2
:105E5000186F33EF2FF0000E156F000E166F000E47
:105E6000176F000E186F1551161117111811D8A4BD
:105E70003CEF2FF03EEF2FF056EF2FF0000E116F9A
:105E8000000E126F000E136F000E146F800E1313AE
:105E90007F0E14132151141311C611F612C612F6F7
:105EA00013C613F614C614F699EF30F02851D8A48F
:105EB0005CEF2FF05EEF2FF068EF2FF0000E116F08
:105EC000000E126F000E136F000E146F99EF30F07A
:105ED000295128C619F61A6B195F000E1A5B7F0E3E
:105EE0001925226F000E1A21236F11C61DF612C646
:105EF0001EF613C61FF614C620F6000E116F000E14
:105F0000126F000E136F000E146F000E246F000E40
:105F1000256F000E266F000E276F000E296FC9EF48
:105F20002FF02951D8B497EF2FF099EF2FF0B0EF61
:105F30002FF0D8901D371E371F372037D8901137D4
:105F400012371337143727AFA8EF2FF0AAEF2FF02F
:105F5000ABEF2FF01181D89024372537263727371C
:105F600015511D5D16511E5917511F5918512059B1
:105F7000D8A0BDEF2FF0BFEF2FF0C8EF2FF0278D87
:105F800015511D5F16511E5B17511F5B1851205B89
:105F9000292B190E2965CFEF2FF0D1EF2FF091EFBC
:105FA0002FF01D511E111F112011D8B4DAEF2FF060
:105FB000DCEF2FF0F4EF2FF02481F4EF2FF0D890E6
:105FC000113712371337143727AFE9EF2FF0EBEF04
:105FD0002FF0ECEF2FF01181D8902437253726379A
:105FE00027372207D8A0230713AFF9EF2FF0FBEFD5
:105FF0002FF0DFEF2FF0000E296F27AF02EF30F008
:1060000004EF30F028EF30F0FF0E2415196FFF0E6B
:1060100025151A6FFF0E26151B6F7F0E27151C6F97
:1060200019511A111B111C11D8B419EF30F01BEFC4
:1060300030F01FEF30F0010E296F28EF30F011A182
:1060400024EF30F026EF30F028EF30F01BEF30F087
:106050002951D8B42EEF30F030EF30F054EF30F05B
:10606000010E1127000E12231323142314A13BEF5A
:1060700030F03DEF30F054EF30F011C619F612C693
:106080001AF613C61BF614C61CF61C351C331B333C
:106090001A33193319C611F61AC612F61BC613F6AF
:1060A0001CC614F6224B232B23BF5FEF30F0235185
:1060B00008E12229D8A05FEF30F061EF30F06CEFFB
:1060C00030F0000E236F2269000E116F000E126F68
:1060D000000E136F000E146F23BF79EF30F02351C1
:1060E00006E12205D8B077EF30F079EF30F087EF96
:1060F00030F0000E236F000E226F000E116F000EA5
:10610000126F000E136F000E146F000E216F22C667
:1061100028F628A18EEF30F090EF30F093EF30F0BA
:10612000138F94EF30F0139FD8902831146F4AEFFB
:106130002FF012000450800B116E04500424186ECE
:1061400003AEA5EF30F0A7EF30F0A8EF30F01880E5
:106150001850D8B4AEEF30F0B0EF30F0C5EF30F0FB
:106160001828D8A4B6EF30F0B8EF30F0C0EF30F018
:10617000000E016E000E026E000E036E000E046E25
:10618000038E000E046ECDEF30F0000E016E000E97
:10619000026E000E036E000E046E0850800B111A82
:1061A00008500824196E07AED8EF30F0DAEF30F05F
:1061B000DBEF30F019801950D8B4E1EF30F0E3EFA5
:1061C00030F0F8EF30F01928D8A4E9EF30F0EBEF19
:1061D00030F0F3EF30F0000E056E000E066E000E8C
:1061E000076E000E086E078E000E086E00EF31F08D
:1061F000000E056E000E066E000E076E000E086E95
:106200000550061007100810D8A409EF31F00BEF65
:1062100031F023EF31F0000E016E000E026E000E21
:10622000036E000E046E800E03127F0E04121150D6
:10623000041201C501F502C502F503C503F504C545
:1062400004F566EF32F01850D8A429EF31F02BEFA7
:1062500031F035EF31F0000E016E000E026E000ECF
:10626000036E000E046E66EF32F0195018C509F582
:106270000A6A095E000E0A5A7F0E0924126E000E89
:106280000A20136E01C50DF502C50EF503C50FF505
:1062900004C510F5000E016E000E026E000E036EB6
:1062A000000E046E000E146E000E156E000E166EBB
:1062B000000E176E000E196E96EF31F01950D8B41B
:1062C00064EF31F066EF31F07DEF31F0D8900D36AC
:1062D0000E360F361036D8900136023603360436A5
:1062E00017AE75EF31F077EF31F078EF31F00180D4
:1062F000D890143615361636173605500D5C0650F4
:106300000E5807500F5808501058D8A08AEF31F097
:106310008CEF31F095EF31F0178C05500D5E065083
:106320000E5A07500F5A0850105A192A190E19649C
:106330009CEF31F09EEF31F05EEF31F00D500E101A
:106340000F101010D8B4A7EF31F0A9EF31F0C1EF62
:1063500031F01480C1EF31F0D890013602360336A7
:10636000043617AEB6EF31F0B8EF31F0B9EF31F0D7
:106370000180D89014361536163617361206D8A076
:10638000130603AEC6EF31F0C8EF31F0ACEF31F0D9
:10639000000E196E17AECFEF31F0D1EF31F0F5EFFF
:1063A00031F0FF0E1414096EFF0E15140A6EFF0E65
:1063B00016140B6E7F0E17140C6E09500A100B107A
:1063C0000C10D8B4E6EF31F0E8EF31F0ECEF31F03B
:1063D000010E196EF5EF31F001A0F1EF31F0F3EF9E
:1063E00031F0F5EF31F0E8EF31F01950D8B4FBEFB0
:1063F00031F0FDEF31F021EF32F0010E0126000EF9
:1064000002220322042204A008EF32F00AEF32F045
:1064100021EF32F001C509F502C50AF503C50BF5F8
:1064200004C50CF50C340C320B320A32093209C5A2
:1064300001F50AC502F50BC503F50CC504F5124AB2
:10644000132A13BE2CEF32F0135008E11228D8A003
:106450002CEF32F02EEF32F039EF32F0000E136EE7
:106460001268000E016E000E026E000E036E000E2A
:10647000046E13BE46EF32F0135006E11204D8B09A
:1064800044EF32F046EF32F054EF32F0000E136E6C
:10649000000E126E000E016E000E026E000E036EF4
:1064A000000E046E000E116E12C518F518A05BEFF9
:1064B00032F05DEF32F060EF32F0038E61EF32F0D8
:1064C000039ED8901830046E17EF31F012000CC6FE
:1064D00024F60DC625F60EC626F60FC627F610C6FC
:1064E00028F611C629F612C62AF613C62BF606019F
:1064F0002BBF7DEF32F080EF32F0010E81EF32F0F2
:10650000000E226F236B22512311D8B48AEF32F090
:106510008CEF32F09CEF32F02B1F2A1F291F281F0F
:10652000271F261F251F246D000E25232623272322
:10653000282329232A232B23BABFA1EF32F0A3EF6C
:1065400032F0A5EF32F00501BC930601BABFB3EFFC
:1065500032F0BA5106E1B905D8B0B1EF32F0B3EF7D
:1065600032F0B9EF32F0000E1F6F010E1E6FBDEF5B
:1065700032F0B9C61EF6BAC61FF6B7C620F6B8C6C0
:1065800021F622512311D8A4C8EF32F0CAEF32F01D
:10659000D2EF32F00501BCA5D0EF32F0D2EF32F0ED
:1065A000D6EF32F006012007D8A02107000E060121
:1065B0002D6F4F0E2C6F000E07014F6F61EF33F000
:1065C00006012C07D8A02D07000E2C25D96E070E2A
:1065D0002D21DA6E24C6A0F525C6A1F526C6A2F5A2
:1065E00027C6A3F528C6A4F529C6A5F52AC6A6F58B
:1065F0002BC6A7F50A0E0501A86F000EA96F000EA5
:10660000AA6F000EAB6F000EAC6F000EAD6F000EE8
:10661000AE6F000EAF6F68EC3BF0A0C514F6A1C5DD
:1066200015F6A2C516F6A3C517F6A4C518F6A5C596
:1066300019F6A6C51AF6A7C51BF614C6B2F516C6F6
:10664000B3F535EC47F00501B251300FDF6E0601AE
:106650001E07D8A01F072007D8A0210724C6A0F531
:1066600025C6A1F526C6A2F527C6A3F528C6A4F51A
:1066700029C6A5F52AC6A6F52BC6A7F50A0E05015B
:10668000A86F000EA96F000EAA6F000EAB6F000E70
:10669000AC6F000EAD6F000EAE6F000EAF6F51EC21
:1066A00038F0A0C524F6A1C525F6A2C526F6A3C5D7
:1066B00027F6A4C528F6A5C529F6A6C52AF6A7C5B6
:1066C0002BF606012DBF6DEF33F02D5108E12C059F
:1066D000D8A06DEF33F06FEF33F0A0EF33F024511B
:1066E000251126112711281129112A112B11D8A49F
:1066F0007CEF33F07EEF33F0E0EF32F01FBF8BEF33
:1067000033F01F5106E11E05D8B089EF33F08BEF4F
:1067100033F0E0EF32F021BF96EF33F0215108E182
:106720002005D8A096EF33F098EF33F0A0EF33F0C8
:106730000501BCB39EEF33F0A0EF33F0E0EF32F091
:10674000060122512311D8A4A8EF33F0AAEF33F0A9
:10675000B2EF33F00501BCA5B0EF33F0B2EF33F088
:10676000D2EF33F006012C07D8A02D0722512311B8
:10677000D8A4BDEF33F0BFEF33F0C5EF33F0000E18
:106780001D6F2B0E1C6FC9EF33F0000E1D6F2D0E09
:106790001C6F000E2C25D96E070E2D21DA6E6100BC
:1067A00070F8DFF40AC6B2F50BC6B3F5000E0601A9
:1067B0002C250501B46F070E06012D210501B56FCB
:1067C00020C6B6F521C6B7F564EC41F0B2C50AF6AD
:1067D000B3C50BF6120020C538F521C539F522C521
:1067E0003AF523C53BF524C53CF525C53DF526C541
:1067F0003EF527C53FF53FBE00EF34F003EF34F020
:10680000010E04EF34F0000E366E376A3650371042
:10681000D8B40DEF34F00FEF34F01FEF34F03F1E1B
:106820003E1E3D1E3C1E3B1E3A1E391E386C000E9D
:1068300039223A223B223C223D223E223F220601BF
:10684000BABF25EF34F027EF34F029EF34F005011B
:10685000BC930601BABF37EF34F0BA5106E1B9056F
:10686000D8B035EF34F037EF34F03DEF34F0000EB0
:10687000336E010E326E41EF34F0B9C632F5BAC64E
:1068800033F5B7C634F5B8C635F536503710D8A449
:106890004CEF34F04EEF34F056EF34F00501BCA568
:1068A00054EF34F056EF34F059EF34F03406D8A0FA
:1068B0003506000E416E4F0E406E000E07014F6F01
:1068C000DEEF34F04006D8A04106000E4024D96E19
:1068D000070E4120DA6E38C501F539C502F53AC513
:1068E00003F53BC504F53CC505F53DC506F53EC5BC
:1068F00007F53FC508F50A0E096E000E0A6E000E78
:106900000B6E000E0C6E000E0D6E000E0E6E000E65
:106910000F6E000E106E1BEC3CF001C528F502C591
:1069200029F503C52AF504C52BF505C52CF506C5C3
:106930002DF507C52EF508C52FF528C513F52AC571
:1069400014F556EC47F01350300FDF6E3206D8A026
:1069500033063406D8A0350638C501F539C502F529
:106960003AC503F53BC504F53CC505F53DC506F53F
:106970003EC507F53FC508F50A0E096E000E0A6E02
:10698000000E0B6E000E0C6E000E0D6E000E0E6EE5
:10699000000E0F6E000E106E24EC39F001C538F5B4
:1069A00002C539F503C53AF504C53BF505C53CF507
:1069B00006C53DF507C53EF508C53FF541BEE9EF03
:1069C00034F0415008E14004D8A0E9EF34F0EBEF97
:1069D00034F01CEF35F0385039103A103B103C10B1
:1069E0003D103E103F10D8A4F8EF34F0FAEF34F029
:1069F00062EF34F033BE07EF35F0335006E1320476
:106A0000D8B005EF35F007EF35F062EF34F035BE62
:106A100012EF35F0355008E13404D8A012EF35F00C
:106A200014EF35F01CEF35F00501BCB31AEF35F06B
:106A30001CEF35F062EF34F036503710D8A423EF56
:106A400035F025EF35F02DEF35F00501BCA52BEF26
:106A500035F02DEF35F04CEF35F04006D8A041066B
:106A600036503710D8A437EF35F039EF35F03FEF17
:106A700035F0000E316E2B0E306E43EF35F0000E08
:106A8000316E2D0E306E000E4024D96E070E41205F
:106A9000DA6E6100C0F4DFF41EC513F51FC514F5EE
:106AA000000E4024156E070E4120166E34C517F5F2
:106AB00035C518F533EC42F013C51EF514C51FF5A6
:106AC0001200B1C63AF6B2C63BF6B3C63CF6B4C63F
:106AD0003DF62AC63AF62BC63BF62CC63CF62DC62A
:106AE0003DF6810E06012E6FFF0E2F6F3AC630F66F
:106AF0003BC631F63CC632F63DC633F6180E86EF7D
:106B000035F0D8903333323331333033E82E81EFE0
:106B100035F030512E25386F000E2F21396F39BFD7
:106B20009BEF35F0395109E1170E385DD8A09BEF86
:106B300035F09DEF35F0A7EF35F02AC62AF62BC6C3
:106B40002BF62CC62CF62DC62DF66BEF36F039BF82
:106B5000ACEF35F0AEEF35F01FEF36F038C62EF65D
:106B6000FF0E2F6FFF0E306F7F0E316F000E326FF2
:106B70002E67BDEF35F0C5EF35F0323532333133A6
:106B800030332F332E2FB8EF35F02FC634F630C602
:106B900035F631C636F632C637F6060134513A15A7
:106BA0002E6F35513B152F6F36513C15306F3751D5
:106BB0003D15316F2E512F1130113111D8A4E3EF53
:106BC00035F0E5EF35F0E7EF35F09DEF35F03AC6FB
:106BD0002EF63BC62FF63CC630F63DC631F6200EEB
:106BE000F7EF35F0D890313330332F332E33E82E92
:106BF000F2EF35F02E512F1130113111D8B403EFCF
:106C000036F005EF36F00DEF36F034513A273551B6
:106C10003B2336513C2337513D23341D2E6F351D08
:106C20002F6F361D306F371D316F2E513A172F5190
:106C30003B1730513C1731513D1763EF36F03AC6E0
:106C40002EF63BC62FF63CC630F63DC631F6200E7A
:106C50002FEF36F0D890313330332F332E33E82EE8
:106C60002AEF36F02E512F1130113111D8A43BEFFD
:106C700036F03DEF36F047EF36F0000E3A6F000E7B
:106C80003B6F000E3C6F000E3D6F63EF36F0D89007
:106C90003A352E6F3B352F6F3C35306F3D35316FB8
:106CA0002E512F1130113111D8B459EF36F05BEF5E
:106CB00036F063EF36F0000E3A6F000E3B6F800E39
:106CC0003C6FBF0E3D6F3AC62AF63BC62BF63CC65C
:106CD0002CF63DC62DF61200B1C62AF5B2C62BF52C
:106CE000B3C62CF5B4C62DF51AC52AF51BC52BF570
:106CF0001CC52CF51DC52DF5810E1E6EFF0E1F6ED9
:106D00002AC520F52BC521F52CC522F52DC523F567
:106D1000180E90EF36F0D8902332223221322032F2
:106D2000E82E8BEF36F020501E24286E000E1F2018
:106D3000296E29BEA5EF36F0295009E1170E285C0F
:106D4000D8A0A5EF36F0A7EF36F0B1EF36F01AC5B0
:106D50001AF51BC51BF51CC51CF51DC51DF574EFEB
:106D600037F029BEB6EF36F0B8EF36F028EF37F03F
:106D700028C51EF5FF0E1F6EFF0E206E7F0E216EC2
:106D8000000E226E1E66C7EF36F0CFEF36F02234CB
:106D90002232213220321F321E2EC2EF36F01FC5A2
:106DA00024F520C525F521C526F522C527F5245053
:106DB0002A141E6E25502B141F6E26502C14206E84
:106DC00027502D14216E1E501F1020102110D8A402
:106DD000ECEF36F0EEEF36F0F0EF36F0A7EF36F0EE
:106DE0002AC51EF52BC51FF52CC520F52DC521F58F
:106DF000200E00EF37F0D890213220321F321E32A1
:106E0000E82EFBEF36F01E501F1020102110D8B4D2
:106E10000CEF37F00EEF37F016EF37F024502A263C
:106E200025502B2226502C2227502D22241C1E6E4A
:106E3000251C1F6E261C206E271C216E1E502A1634
:106E40001F502B1620502C1621502D166CEF37F0AA
:106E50002AC51EF52BC51FF52CC520F52DC521F51E
:106E6000200E38EF37F0D890213220321F321E32F8
:106E7000E82E33EF37F01E501F1020102110D8A439
:106E800044EF37F046EF37F050EF37F0000E2A6E40
:106E9000000E2B6E000E2C6E000E2D6E6CEF37F078
:106EA000D8902A341E6E2B341F6E2C34206E2D3455
:106EB000216E1E501F1020102110D8B462EF37F041
:106EC00064EF37F06CEF37F0000E2A6E000E2B6E79
:106ED000800E2C6EBF0E2D6E2AC51AF52BC51BF524
:106EE0002CC51CF52DC51DF512000501A86F050167
:106EF000A851D8B47EEF37F080EF37F0A2EF37F02B
:106F0000A3BF87EF37F085EF37F0A2EF37F0A0C5CA
:106F1000A4F5A1C5A5F5A2C5A6F5A3C5A7F5A41F0F
:106F2000A51FA61FA71FA42B000EA523A623A723DA
:106F3000A4C5AAF5A5C5ABF5A6C5ACF5A7C5ADF525
:106F4000AAEF37F0A0C5AAF5A1C5ABF5A2C5ACF56F
:106F5000A3C5ADF5A051A111A211A311D8A4B3EFFF
:106F600037F0B5EF37F0BFEF37F0000EA06F000E2F
:106F7000A16F000EA26F000EA36F50EF38F0960EB7
:106F8000A96FC9EF37F0A92BD890AD33AC33AB3331
:106F9000AA33000EAA15A46F000EAB15A56F000E44
:106FA000AC15A66FFE0EAD15A76FA451A511A611C5
:106FB000A711D8A4DEEF37F0E0EF37F0C3EF37F0DA
:106FC000EEEF37F0A92B010EAA27000EAB23AC235E
:106FD000AD23D890AD33AC33AB33AA33000EAA1532
:106FE000A46F000EAB15A56F000EAC15A66FFF0EBB
:106FF000AD15A76FA451A511A611A711D8A403EF31
:1070000038F005EF38F0E2EF37F00DEF38F0A90770
:10701000D890AA37AB37AC37AD37ACBF12EF38F0EA
:1070200014EF38F01CEF38F0020EA9611AEF38F0B7
:107030001CEF38F007EF38F0A9B121EF38F023EF5B
:1070400038F024EF38F0AC9FD890A933A9C5A4F547
:10705000A56BA66BA76BA4C5A7F5A66BA56BA46BC8
:10706000A451AA13A551AB13A651AC13A751AD134C
:10707000A851D8B43EEF38F040EF38F048EF38F080
:10708000A3BF47EF38F045EF38F048EF38F0AD8F49
:10709000AAC5A0F5ABC5A1F5ACC5A2F5ADC5A3F5D4
:1070A0001200000E0601016F0501AFBF5CEF38F062
:1070B0005AEF38F06FEF38F0AF1FAE1FAD1FAC1FA7
:1070C000AB1FAA1FA91FA86D000EA923AA23AB23DB
:1070D000AC23AD23AE23AF23010E0601016F0501E2
:1070E000A7BF77EF38F075EF38F08AEF38F0A71FB9
:1070F000A61FA51FA41FA31FA21FA11FA06D000EE6
:10710000A123A223A323A423A523A623A723010EFF
:107110000601011B21EE02F2070EDE6AE806FDE21F
:107120000501A851A911AA11AB11AC11AD11AE11F5
:10713000AF11D8B49EEF38F0A0EF38F0FAEF38F086
:10714000010E0601006FB0EF38F0D890A837A937CC
:10715000AA37AB37AC37AD37AE37AF370601002BA8
:107160000501AFAFB6EF38F0B8EF38F0A5EF38F063
:107170000601D8900237033704370537063707373B
:10718000083709370501A851A05DA951A159AA5195
:10719000A259AB51A359AC51A459AD51A559AE5107
:1071A000A659AF51A759D8A0D8EF38F0DAEF38F088
:1071B000ECEF38F0A851A05FA951A15BAA51A25BE6
:1071C000AB51A35BAC51A45BAD51A55BAE51A65BCB
:1071D000AF51A75B060102810501D890AF33AE33F2
:1071E000AD33AC33AB33AA33A933A8330601002F38
:1071F000B8EF38F006010151D8B401EF39F003EFD0
:1072000039F013EF39F0091F081F071F061F051F6C
:10721000041F031F026D000E03230423052306230E
:1072200007230823092302C6A0F503C6A1F504C657
:10723000A2F505C6A3F506C6A4F507C6A5F508C6BA
:10724000A6F509C6A7F51200000E126E10BE2DEFAE
:1072500039F02BEF39F03FEF39F0101E0F1E0E1EE4
:107260000D1E0C1E0B1E0A1E096C000E0A220B229C
:107270000C220D220E220F221022010E126E08BEC9
:1072800046EF39F044EF39F058EF39F0081E071E89
:10729000061E051E041E031E021E016C000E0222A5
:1072A000032204220522062207220822010E121AB6
:1072B00021EE13F1070EDE6AE806FDE209500A101E
:1072C0000B100C100D100E100F101010D8B46BEF27
:1072D00039F06DEF39F0BFEF39F0010E116E7BEF31
:1072E00039F0D89009360A360B360C360D360E3684
:1072F0000F361036112A10AE80EF39F082EF39F0D8
:1073000071EF39F0D8901336143615361636173615
:10731000183619361A360950015C0A5002580B50BB
:1073200003580C5004580D5005580E5006580F5075
:10733000075810500858D8A0A0EF39F0A2EF39F044
:10734000B3EF39F00950015E0A50025A0B50035A4C
:107350000C50045A0D50055A0E50065A0F50075A39
:107360001050085A1380D89010320F320E320D325E
:107370000C320B320A320932112E82EF39F01250E0
:10738000D8B4C5EF39F0C7EF39F0D7EF39F01A1E8E
:10739000191E181E171E161E151E141E136C000E25
:1073A0001422152216221722182219221A2213C576
:1073B00001F514C502F515C503F516C504F517C585
:1073C00005F518C506F519C507F51AC508F5120023
:1073D000000E0501B06F000EAF6F000EAE6F000E15
:1073E000AD6FF5EF39F0A74BA82B61009CF6F6F4D2
:1073F0006100A0F6F7F4000EF86E0800F550200AC0
:10740000D8B405EF3AF007EF3AF0F3EF39F0F70EA2
:10741000A96FFF0EAA6F61009CF6F6F46100A0F65A
:10742000F7F4000EF86E0800F550AB6FAC6BA95185
:10743000AB27AA51AC23AC5109E1050EAB5DD8A036
:1074400024EF3AF026EF3AF0F3EF39F030EF3AF06C
:10745000000EAE6F010EAD6FA74BA82B6EEF3AF08A
:1074600061009CF6F6F46100A0F6F7F4000EF86EE9
:107470000800F550A96FAA6BAA51000AD8B443EFCF
:107480003AF06EEF3AF0A9512B0AD8B42CEF3AF04B
:10749000060AD8B428EF3AF06EEF3AF0AFC5A0F57F
:1074A000B0C5A1F5000EA36F0A0EA26F5EEC48F006
:1074B00061009CF6F6F46100A0F6F7F4000EF86E99
:1074C0000800F5500501A05F000EA15B300EA0255D
:1074D000AF6F000EA121B06F2CEF3AF0D00EA96F64
:1074E000FF0EAA6F61009CF6F6F46100A0F6F7F4B7
:1074F000000EF86E0800F550AB6FAC6BA951AB27CE
:10750000AA51AC23AC5109E10A0EAB5DD8A08BEFB8
:107510003AF08DEF3AF04EEF3AF0AD51AE11D8A4FB
:1075200094EF3AF096EF3AF0A4EF3AF0AFC5A9F530
:10753000B0C5AAF5A91FAA1FA94BAA2BA9C5A7F5D3
:10754000AAC5A8F5A8EF3AF0AFC5A7F5B0C5A8F54C
:107550001200000E106E000E0F6E000E0E6E000E6A
:107560000D6EB5EF3AF0074A082A61001CF4F6F4F4
:10757000610020F4F7F4000EF86E0800F550200AC0
:10758000D8B4C5EF3AF0C7EF3AF0B3EF3AF0F70EE0
:10759000096EFF0E0A6E61001CF4F6F4610020F41F
:1075A000F7F4000EF86E0800F5500B6E0C6A0950E7
:1075B0000B260A500C220C5009E1050E0B5CD8A0DA
:1075C000E4EF3AF0E6EF3AF0B3EF3AF0F0EF3AF0EA
:1075D000000E0E6E010E0D6E074A082A2DEF3BF0CD
:1075E00061001CF4F6F4610020F4F7F4000EF86E6C
:1075F0000800F550096E0A6A0A50000AD8B403EF71
:107600003BF02DEF3BF009502B0AD8B4ECEF3AF0E9
:10761000060AD8B4E8EF3AF02DEF3BF00FC501F5BC
:1076200010C502F5000E046E0A0E036E89EC48F0D8
:1076300061001CF4F6F4610020F4F7F4000EF86E1B
:107640000800F550015E000E025A300E01240F6E44
:10765000000E0220106EECEF3AF0D00E096EFF0E15
:107660000A6E61001CF4F6F4610020F4F7F4000ED9
:10767000F86E0800F5500B6E0C6A09500B260A5084
:107680000C220C5009E10A0E0B5CD8A04AEF3BF02B
:107690004CEF3BF00EEF3BF00D500E10D8A453EF23
:1076A0003BF055EF3BF063EF3BF00FC509F510C51C
:1076B0000AF5091E0A1E094A0A2A09C507F50AC55C
:1076C00008F567EF3BF00FC507F510C508F5120088
:1076D000000E0501B16FA7BF72EF3BF070EF3BF0FA
:1076E00084EF3BF0A71FA61FA51FA41FA31FA21F67
:1076F000A11FA06D000EA123A223A323A423A523D1
:10770000A623A723010EB16FAFBF8BEF3BF089EF2C
:107710003BF09BEF3BF0AF1FAE1FAD1FAC1FAB1F8D
:10772000AA1FA91FA86D000EA923AA23AB23AC236F
:10773000AD23AE23AF23A851A911AA11AB11AC11EF
:10774000AD11AE11AF11D8B4A8EF3BF0AAEF3BF0EA
:10775000F2EF3BF0010EB06FB8EF3BF0D890A837D6
:10776000A937AA37AB37AC37AD37AE37AF37B02B09
:10777000AFAFBDEF3BF0BFEF3BF0AEEF3BF0A8513A
:10778000A05DA951A159AA51A259AB51A359AC511D
:10779000A459AD51A559AE51A659AF51A759D8A07A
:1077A000D4EF3BF0D6EF3BF0E6EF3BF0A851A05F03
:1077B000A951A15BAA51A25BAB51A35BAC51A45BE5
:1077C000AD51A55BAE51A65BAF51A75BD890AF336F
:1077D000AE33AD33AC33AB33AA33A933A833B02FB8
:1077E000BFEF3BF0B151D8B4F8EF3BF0FAEF3BF00C
:1077F0000AEF3CF0A71FA61FA51FA41FA31FA21FCF
:10780000A11FA06D000EA123A223A323A423A523BF
:10781000A623A723A0C5A0F5A1C5A1F5A2C5A2F5E1
:10782000A3C5A3F5A4C5A4F5A5C5A5F5A6C5A6F54C
:10783000A7C5A7F51200000E126E08BE24EF3CF09B
:1078400022EF3CF036EF3CF0081E071E061E051E18
:10785000041E031E021E016C000E022203220422DB
:107860000522062207220822010E126E10BE3DEFED
:107870003CF03BEF3CF04DEF3CF0101E0F1E0E1E97
:107880000D1E0C1E0B1E0A1E096C000E0A220B2276
:107890000C220D220E220F22102209500A100B106A
:1078A0000C100D100E100F101010D8B45AEF3CF041
:1078B0005CEF3CF0A4EF3CF0010E116E6AEF3CF07F
:1078C000D89009360A360B360C360D360E360F3682
:1078D0001036112A10AE6FEF3CF071EF3CF060EF04
:1078E0003CF00950015C0A5002580B5003580C50F0
:1078F00004580D5005580E5006580F500758105098
:107900000858D8A086EF3CF088EF3CF098EF3CF0A8
:107910000950015E0A50025A0B50035A0C50045A87
:107920000D50055A0E50065A0F50075A1050085A5B
:10793000D89010320F320E320D320C320B320A3226
:107940000932112E71EF3CF01250D8B4AAEF3CF07E
:10795000ACEF3CF0BCEF3CF0081E071E061E051EF7
:10796000041E031E021E016C000E022203220422CA
:10797000052206220722082201C501F502C502F5EB
:1079800003C503F504C504F505C505F506C506F5EB
:1079900007C507F508C508F51200000E0601AA6F15
:1079A000000EB06F000EAF6FF9EC48F0EAEC48F053
:1079B000DFEC48F0C0EC45F004EC49F0000E95EC2B
:1079C00047F0A0C5AFF6A1C5B0F6330E0501B26F02
:1079D000330EB36F530EB46F400EB56FAFC6A0F544
:1079E000B0C6A1F5A26BA36B000E75EC37F0A0C575
:1079F000AEF5A1C5AFF5A2C5B0F5A3C5B1F557EC7D
:107A00002AF0AEC511F6AFC512F6B0C513F6B1C572
:107A100014F6000E0601156FF00E166F7F0E176F2D
:107A2000450E186FCCEC2EF011C6ABF612C6ACF6B4
:107A300013C6ADF614C6AEF6010E06019E6F250EF6
:107A40009F6FAFC6A0F6B0C6A1F6ABC6A2F6ACC695
:107A5000A3F6ADC6A4F6AEC6A5F69EEC48F00301AB
:107A6000F7AB35EF3DF037EF3DF03EEF3DF03D0E2B
:107A700006019E6F250E9F6F9EEC48F00301F7AD47
:107A800044EF3DF046EF3DF04DEF3DF0230E060193
:107A90009E6F250E9F6F9EEC48F0020E0601A96FA7
:107AA000450EA86FA90EE82EFED7A82FFCD7A92F48
:107AB000FAD700D0DEEF3CF081EF00F00501A235EF
:107AC000A335A96FA951D8A468EF3DF06AEF3DF046
:107AD00074EF3DF0000EA06F000EA16F000EA26FBC
:107AE000000EA36FE1EF3DF0A0C5A4F5A1C5A5F57B
:107AF000A2C5A6F5A3C5A7F5200E84EF3DF0D8904A
:107B0000A733A633A533A433E82E7FEF3DF0A4516D
:107B1000A86FA28FFF0EA017FF0EA117FF0EA217CE
:107B2000000EA317960EA95FA9BF9BEF3DF099EF3A
:107B30003DF0B1EF3DF0A951800A970FD8B0A3EF07
:107B40003DF0A5EF3DF0A7EF3DF06AEF3DF0D89096
:107B5000A333A233A133A033A93FA7EF3DF0C9EF70
:107B60003DF01F0EA965B7EF3DF0B9EF3DF0C1EF55
:107B70003DF06AEF3DF0D890A037A137A237A33788
:107B8000A907A951D8A4C7EF3DF0C9EF3DF0BBEF5D
:107B90003DF0A851D8B4CFEF3DF0D1EF3DF0D9EF93
:107BA0003DF0A31FA21FA11FA06D000EA123A223C1
:107BB000A323A0C5A0F5A1C5A1F5A2C5A2F5A3C5A3
:107BC000A3F51200000E06011115196F000E121513
:107BD0001A6F800E13151B6F7F0E14151C6F195131
:107BE0001A111B111C11D8A4F8EF3DF0FAEF3DF06B
:107BF00002EF3EF0000E116F000E126F000E136FB9
:107C0000000E146F000E1515196F000E16151A6F61
:107C1000800E17151B6F7F0E18151C6F19511A1146
:107C20001B111C11D8A417EF3EF019EF3EF021EF05
:107C30003EF0000E156F000E166F000E176F000E4F
:107C4000186F14AF26EF3EF028EF3EF031EF3EF014
:107C5000116D121FD8B0122B131FD8B0132B800E2A
:107C6000145718AF36EF3EF038EF3EF041EF3EF0DC
:107C7000156D161FD8B0162B171FD8B0172B800EF6
:107C80001857000E111B000E121B000E131B800E46
:107C9000141B000E151B000E161B000E171B800E6A
:107CA000181B1551115D16511259175113591851BE
:107CB0001459D8B05EEF3EF060EF3EF063EF3EF057
:107CC000D89064EF3EF0D8801200033404340A6E7A
:107CD0000A50D8A46EEF3EF070EF3EF07AEF3EF01F
:107CE000000E016E000E026E000E036E000E046E9A
:107CF000E7EF3EF001C505F502C506F503C507F53A
:107D000004C508F5200E8AEF3EF0D89008320732FD
:107D100006320532E82E85EF3EF00550096E038EDF
:107D2000FF0E0116FF0E0216FF0E0316000E0416BC
:107D3000960E0A5E0ABEA1EF3EF09FEF3EF0B7EF4F
:107D40003EF00A50800A970FD8B0A9EF3EF0ABEF93
:107D50003EF0ADEF3EF070EF3EF0D89004320332CB
:107D6000023201320A3EADEF3EF0CFEF3EF01F0E81
:107D70000A64BDEF3EF0BFEF3EF0C7EF3EF070EF9C
:107D80003EF0D89001360236033604360A060A5011
:107D9000D8A4CDEF3EF0CFEF3EF0C1EF3EF009505A
:107DA000D8B4D5EF3EF0D7EF3EF0DFEF3EF0041E43
:107DB000031E021E016C000E02220322042201C5D2
:107DC00001F502C502F503C503F504C504F512006B
:107DD000000E1A14226E000E1B14236E800E1C144B
:107DE000246E7F0E1D14256E2250231024102510A2
:107DF000D8A4FDEF3EF0FFEF3EF007EF3FF0000E9E
:107E00001A6E000E1B6E000E1C6E000E1D6E000E14
:107E10001E14226E000E1F14236E800E2014246E7A
:107E20007F0E2114256E2250231024102510D8A473
:107E30001CEF3FF01EEF3FF026EF3FF0000E1E6EEE
:107E4000000E1F6E000E206E000E216E1DAE2BEF79
:107E50003FF02DEF3FF036EF3FF01A6C1B1ED8B00D
:107E60001B2A1C1ED8B01C2A800E1D5621AE3BEFCB
:107E70003FF03DEF3FF046EF3FF01E6C1F1ED8B0C5
:107E80001F2A201ED8B0202A800E2156000E1A1A52
:107E9000000E1B1A000E1C1A800E1D1A000E1E1A50
:107EA000000E1F1A000E201A800E211A1E501A5C96
:107EB0001F501B5820501C5821501D58D8B063EF3C
:107EC0003FF065EF3FF068EF3FF0D89069EF3FF08B
:107ED000D8801200B8C5AAF5B9C5ABF5BAC5ACF5DE
